:03000000020030CB
:03000B0002010BE4
:03001B00020126B9
:10003000743811AE740C11AE740111AE758951751E
:100040008BB2758DFED2AB753000753100758AF0BC
:10005000758CD8D2A9753463D2AFD28CD28E11668A
:100060007FC811C880F8740111AEE53175F03CA469
:10007000FDACF08C358D367537037538E811E3E546
:100080003B243011BB8C358D3675370075386411C3
:10009000E3E53B75F00A84E5F0243011BBE53C75DF
:1000A000F00A84243011BBE5F0243011BB22F5A006
:1000B000C2B0C2B1D2B17F0A11C822F5A0D2B0C27B
:1000C000B1D2B17F0111C8227EFADEFEDFFA22C36F
:1000D000E5368538F095F0F53AE5358537F095F059
:1000E000F53922753900753A00753B00753C0011F1
:1000F000CF4017053BA939AA3A89358A36B900EFAE
:10010000EA8538F095F050E78A3C22758AF0758CC4
:10011000D8C28DD5340F7534638530317530008584
:100120008D32858B3332758BB2758DFE0530C28F63
:01013000329C
:00000001FF
