:03000000020030CB
:03000B0002019F50
:03001B000201BE21
:1000300074383104740C31047401310475895175BC
:100040008BB2758DFED2AB753000753100758AF0BC
:10005000758CD8D2A9753663D2AFD28CD28E116C82
:1000600011AD7FC8311E7FC8311E80F285353885BD
:100070003437753AB27539FE3125853C40853B3FB2
:1000800075413C317A854938854837753A4E75391E
:10009000013139853D43754200E53175F03CA4F5E9
:1000A0004585F044316185474B85464A22740131CC
:1000B000047452311174503111744D3111743A314C
:1000C0001174203111AD4BAC4A8C378D3875390322
:1000D000753AE83139E53D243031118C378D38756A
:1000E0003900753A643139E53D75F00A84E5F0244C
:1000F000303111E53E75F00A8424303111E5F024E9
:1001000030311122F5A0C2B6C2B7D2B77F0A311E74
:1001100022F5A0D2B6C2B7D2B77F01311E227EFA35
:10012000DEFEDFFA22C3E538853AF095F0F53CE5CE
:10013000378539F095F0F53B22753B00753C00752D
:100140003D00753E0031254017053DA93BAA3C897D
:10015000378A38B900EFEA853AF095F050E78A3EE1
:1001600022754600754700E5438545F025F0F547C3
:09017000E5428544F035F0F54646
:1001790022754800754900E5408541F0A4F543859D
:10018900F042E53F8541F0A4754500F544316185AC
:10019900464885474922C28CD5360F753663853066
:1001A90031753000858D34858B35C28D758AF07532
:1001B9008CD8D28C32C28E0530C28FC28F758BB269
:0601C900758DFED28E329E
:00000001FF
